:020000040800F2
:10000000F80A0020A1010008651400085D1400082A
:100010006114000839120008991C00080000000053
:10002000000000000000000000000000851900082A
:100030003D1200080000000061190008991A00082C
:10004000BB010008BB010008BB010008BB010008A0
:10005000BB010008BB010008BB010008BB01000890
:10006000BB010008BB010008BB010008BB01000880
:10007000BB010008BB010008BB010008BB01000870
:10008000BB010008BB010008BB010008BB01000860
:10009000BB010008BB010008BB010008BB01000850
:1000A000BB010008BB010008BB010008BB01000840
:1000B000FD1A0008151B0008311B0008BB010008D1
:1000C000BB010008BB010008BB010008BB01000820
:1000D000BB010008BB010008BB010008BB01000810
:1000E000BB010008BB010008BB01000800F002F8DA
:1000F00000F047F80AA090E8000C82448344AAF17B
:100100000107DA4501D100F03CF8AFF2090EBAE878
:100110000F0013F0010F18BFFB1A43F0010318473B
:10012000AC3B0000CC3B0000103A24BF78C878C13B
:10013000FAD8520724BF30C830C144BF04680C60ED
:10014000704700000023002400250026103A28BF35
:1001500078C1FBD8520728BF30C148BF0B60704739
:10016000662902F08781002070471FB500F02EFB42
:1001700004000020002101F055FEE0601FBD10B515
:1001800010BD00F023FC1146FFF7EFFF01F012FE57
:1001900000F041FC03B4FFF7F2FF03BC01F099FD4E
:1001A0000948804709480047FEE7FEE7FEE7FEE70B
:1001B000FEE7FEE7FEE7FEE7FEE7FEE70448054947
:1001C000054A064B704700009D1A0008ED00000824
:1001D000F8040020F80A0020F8060020F8060020A5
:1001E000704700000FB41CB5074B06AA7B44694654
:1001F0000090059800F0D1FA0020694600F0E0FA7E
:100200001CBC5DF814FB0000D105000070B504466D
:1002100085690068C10601D5302600E02026C007A8
:1002200007D070BDD4E9012130469047206A401CB8
:1002300020626D1EF6D570BD70B5044685690078E4
:10024000C00707D170BDD4E9012120209047206A62
:10025000401C20626D1EF6D570BD2DE9F0474FF0B1
:10026000000A89460446C0F820A02046E168884775
:10027000002876D0252806D0D4E901219047206AAD
:10028000401C2062F1E7E168204600258847C4F859
:100290001CA006460027C4F818A02A2E09D0304614
:1002A00001F010FD38B304EB8708303EC8F8186041
:1002B00019E059F8041B204604EB87029161E168BC
:1002C0008847012F064618D1E069002820DA25F07A
:1002D00020051DE0D8F8180000EB800006EB400078
:1002E0003038C8F818002046E1688847064601F013
:1002F000E9FC0028EED1012F0AD02E2E08D120468D
:10030000E16888477F1C0646022F45F02005C4DBC4
:10031000A069002803DA404245F00105A061E80722
:1003200001D025F01005B6B1A6F14100192802D878
:10033000203645F400654A463146204625604D4644
:10034000FFF70EFF58B1012806D0ED1D25F007007C
:1003500000F1080989E704E005F1040985E7304662
:100360008AE7206ABDE8F08770477047704770479A
:1003700070472DE9FF4F0C461E464FF0FF378BB0FC
:10038000D2E90001DDF860800A908A46C1F30A557F
:1003900005B93D46002108464FF00000BAF1000FB4
:1003A00000F4400005DA00EB80004FF4400101EA60
:1003B00050004FEA9059B9F1010F00DDB9460A9893
:1003C00050EA4A000ED044F61050A5F2FF354543DE
:1003D0002F14B8F1000F1ED07542291E1EDDC9F181
:1003E00000021CE0B8F1010F4FF0000001D03021F5
:1003F00003E0F24305E02154401CB042FBDB3046F1
:100400000022002121540B99C1F80880C1E9002085
:100410000FB0BDE8F08FBD1B6D1CDEE74A4600DA69
:10042000694206A800F05CFA06AB93E8070003AB4C
:1004300083E8070050460A9900F036FB8DE8070074
:10044000A0F500501F3800900398002D0ADD42F2FD
:100450001F014A460844002303A90390684600F0A0
:100460009FFD09E0A0F500504A461F38002303A96C
:100470000390684600F0A9FD8DE807000004000C19
:1004800003D04FF0FF30410800E01046B8F1000FF4
:1004900003D00022009215461EE0751E05D400F020
:1004A00099F9303262556D1EF9D5B34601220843E1
:1004B00002D000227F1C04E02078302801D10022E5
:1004C0007F1E002A099784D01DE0112D07DA00F065
:1004D00081F9303262556D1C50EA0102F5D10843B2
:1004E00002D00098C8B10EE00021681E05E0235C30
:1004F000625C63542254401E491C8142F7DBAB46C8
:10050000A81B401E0990002004F80B000B98099AC4
:10051000C0F80880C0E9002B7AE711264FF00008E8
:1005200057E72DE9F04F88460446D21D22F0070117
:1005300091B0D1E90001CDE90A0101F0AFFB02461B
:100540000B98C00F01D02D2007E02068810701D54E
:100550002B2002E0202101EAC000032A099001D0EB
:10056000072A05DB03464146204600F079F90BE1F6
:100570002078800601D5E06900E00620B8F1650F1B
:10058000814606D0B8F1660F18D0B8F1670F70D168
:1005900031E00020B9F1110F009001DB112301E0DF
:1005A00009F101030AAA01A90CA8FFF7E2FEDDE99F
:1005B0000C70002609F10105834647E001204B46F7
:1005C00000904FF000470AAA01A90CA8FFF7D1FE3E
:1005D000DDE90DB00C995D46002610B909F1010066
:1005E0000D18B9EB050003D4C0F1FF3609F1010580
:1005F000A5EB09002BE0B9F1010F01DA4FF0010979
:100600000020B9F1110F0090484601DD112300E0F0
:1006100003460AAA01A90CA8FFF7ABFEDDE90C709E
:100620004D4600268346207800070AD4AB4500DA01
:100630005D4601A8012D04DD411911F8011C302986
:1006400007D04F4502DA17F1040F04DA0120824681
:100650000FE06D1EEEE7002F02DCED1B3E4403E0D1
:10066000781CA84200DD7D1CB81B00F1010A4FF088
:1006700000472078000703D4AA4501DB4FF0FF3A7A
:100680000021B7F1004F0DF143088DF8431024D03D
:1006900002202B23002F01DA7F422D230A21021E84
:1006A000A0F1010000DC5FB197FBF1FC97FBF1F2D8
:1006B00001FB1C7C17460CF1300C08F801CDEEE76D
:1006C000A8F1010003702188090501D5452100E04A
:1006D0006521A0F1010800F8011C09980FA9A1EB00
:1006E0000807FF1D00B10120411901EBEA70A16963
:1006F0003844081A401EA0612078C00602D4204663
:10070000FFF784FD099828B1D4E901219047206AB8
:10071000401C20622078C00622D52046FFF776FDD7
:100720001EE0002E04DBB34502DD01A8805D00E081
:100730003020D4E901219047206A401C2062761CB9
:10074000AAF101005FEA000A0AD100F03FF8C06890
:100750000168405CD4E901219047206A401C206276
:10076000281EA5F10105DCDC07E0D4E9012118F819
:10077000010B9047206A401C2062381EA7F1010738
:10078000F3DC2046FFF758FD032011B041E60000DE
:1007900001694A1C02610878704700B58FB0CDE945
:1007A00001310021059105497944CDE90310114635
:1007B0006846FFF752FD0FB000BD0000E5FFFFFFE8
:1007C0000A6802F8010B0A60704700000048704791
:1007D000B804002030B5B0F10A024FEA900E71F172
:1007E00000034EEA817EB0EB0E0061EB91014FEA0F
:1007F000101E4EEA017E10EB0E0041EB11114FEA84
:10080000102E4EEA016E10EB0E0041EB11214FEA63
:10081000104E4EEA014E10EB0E0041EB1141401814
:1008200041F100014FEAD00040EA41704FEAD101A6
:1008300010EB80054FEA810444EA907444EB010414
:100840006D1944EB0404521BA3414FF0000348BF51
:100850000A3200D530BD401C41F1000130BD00001E
:100860002DE9F0411F46044603260168072A01F4DA
:10087000006004DB08B116A505E016A503E008B189
:1008800015A500E015A521F010002060A069C01E8C
:10089000A0610FB1401EA0612046FFF7B7FC4FB129
:1008A000D4E9012138469047206A401C2062C01CD0
:1008B000206206E0206AFAE7D4E9012115F8010B6D
:1008C0009047761EF8D22046FFF7B6FCBDE8F081CF
:1008D0004E414E006E616E00494E4600696E6600E4
:1008E0002DE9F047814616468AB0354878440DC850
:1008F0008DE80D0032487844801C03AC0DC884E8B4
:100900000D0041F69B300844372190FBF1F290FB3B
:10091000F1F5A5F1800501FB12041B3C02D56442F0
:10092000012000E00020DFF898A080460027FA446C
:10093000AAF1BE0A0EE0E0070AD03246684607EB8D
:10094000470101230AEB810100F03FFB8DE807001E
:1009500064107F1C002CEED1194F7F44AE3F19E08C
:10096000E80715D007EB04100DF1180A90E80E0007
:100970008AE80E00C068F04201D19819089032460A
:10098000012306A903A800F020FB03AB83E80700BE
:100990006D10641C002DE3D14FF00103324669460F
:1009A000B8F1000F03A802D000F0FAFA01E000F05D
:1009B0000CFBC9E90001C9F808200AB0BDE8F087BE
:1009C000C433000000487047980400207546FFF7C4
:1009D000F9FFAE4605006946534620F007008546FC
:1009E00018B020B5FFF7EAFBBDE820404FF0000645
:1009F0004FF000074FF000084FF0000B21F0070107
:100A0000AC46ACE8C009ACE8C009ACE8C009ACE849
:100A1000C0098D46704710B50446AFF300802046EC
:100A2000BDE81040FFF7B6BB4FF0013C50F8042B77
:100A300051F8043B9A4221D1A2EB0C03934313EAF1
:100A4000CC1317D150F8042B51F8043B9A4215D11E
:100A5000A2EB0C03934313EACC130BD150F8042BF5
:100A600051F8043B9A4209D1A2EB0C03934313EAD9
:100A7000CC13DBD04FF00000704700BFD01A01BA92
:100A8000B1FA81F101F0180122FA01F0CB40C1F175
:100A90002001DBB2C0B2C01A2CFA01F3D11A914383
:100AA00011EAC311E6D170475FEA400C08BF91F02C
:100AB000000F4FEA8C234FEAC12243EA51514FEA1B
:100AC0001C5018BF00F5F0404FEA300018BF41F04D
:100AD00000415FEA6C5C00F02980BCF1FF3F08BF79
:100AE00040F080407047130C06BF12044FF0100C0A
:100AF0004FF0000C130E04BF12020CF1080C130F80
:100B000004BF12010CF1040C930F04BF92000CF10E
:100B1000020CD30F04BF52000CF1010C11464FF030
:100B20000002A0F11F00A0EB0C00704711F0004F75
:100B300008BF704731F000413FF4D5AF0B0C06BF42
:100B400009044FF0100C4FF0000C0B0E04BF09020B
:100B50000CF1080C0B0F04BF09010CF1040C8B0FF6
:100B600004BF89000CF1020CCB0F04BF49000CF14B
:100B7000010CCCF12003A0EB0C0022FA03F302FAE3
:100B80000CF241EA030100F10100704720F07F4CB4
:100B900080EA030023F07F47ACEB070303F57C53A7
:100BA00000F0004003F1FF032DE980494FEA154BA7
:100BB00009B44FEA144325EA0B4E24EA03480FF226
:100BC000042606EB132749083E785FEA320203FB4E
:100BD0000667C7F5000707FB06F64FEA54374FEAEA
:100BE000D64606F1020607FB066CCCF1005C4FEA24
:100BF0001C472CEA074C07FB06F40CFB06F504EB3C
:100C000015464FEA961634BF00204FF000404FEAD9
:100C1000D13706FB07FC4FEA1C4C0CFB0BF7D21B31
:100C200003FB0CF761EB07010CFB0EF7B0EB074081
:100C300072EB17420CFB08F734BFA2EB0742B2EB92
:100C4000074261EB17414FEA0C444FEA910706FB5C
:100C500007FC4FEA1C4C0CFB0BF7B0EBC74072EBE8
:100C6000573203FB0CF734BFA2EBC742B2EBC742CB
:100C700061EB57310CFB0EF7B0EBC70072EB57720C
:100C80000CFB08F734BFA2EBC702B2EBC70261EB63
:100C90005771039F4FEA816141EA921104EBCC0442
:100CA0004FEAD1374FEA826206FB07FC42EA901214
:100CB0004FEA80604FEA1C4C0CFB0BF7D21B03FB86
:100CC0000CF761EB07010CFB0EF7B0EB074072EB82
:100CD00017420CFB08F734BFA2EB0742B2EB074206
:100CE00061EB17414FEA8C554FEA910704EB9C24C6
:100CF00006FB07FC4FEA1C4C0CFB0BF7B0EBC740A4
:100D000072EB573203FB0CF734BFA2EBC742B2EBD6
:100D1000C74261EB57310CFB0EF7B0EBC70072EB2B
:100D200057720CFB08F734BFA2EBC702B2EBC70245
:100D300061EB577115EB4C254FEA816141EA921145
:100D40004FEA82624FEAD13742EA901206FB07FC73
:100D500044F100044FEA80604FEA1C4C0CFB0BF797
:100D6000D21B03FB0CF761EB07010CFB0EF7B0EB9A
:100D7000074072EB17420CFB08F734BFA2EB0742A7
:100D8000B2EB074261EB174115EB1C154FEA8131BD
:100D900041EA92414FEA823242EA90424FEA803081
:100DA0004FEA0C7644F1000448EA03434EEA0B484C
:100DB0004FF0000EB2EB080C71EB030724BF624644
:100DC00039464EEB0E0E4FF0000B001852414941D0
:100DD0004BEB0B0BB2EB080C71EB03077BF1000B39
:100DE00024BF624639464EEB0E0E4FF0000B001842
:100DF000524149414BEB0B0BB2EB080C71EB030773
:100E00007BF1000B24BF624639464EEB0E0E51EAD1
:100E1000020718BF46F0010616EB0E7655F10002E8
:100E200054F1000103D5BDE88901BDE80088BDE8A3
:100E30008901BDE80048B619524141EB0101A3F117
:100E40000103704780807F7E7D7C7B7A797877761E
:100E500076757473727171706F6E6E6D6C6C6B6A97
:100E60006A69686867666665646463636261616035
:100E7000605F5F5E5E5D5D5C5C5B5B5A5A595958B2
:100E8000585757565655555554545353525252511C
:100E9000515050504F4F4F4E4E4D4D4D4C4C4C4B72
:100EA0004B4B4A4A4A4949494848484747474746B9
:100EB00046464545454444444443434343424242F5
:100EC00042414141002B9C4630D477002BD01CB5C9
:100ED0004FEA370703B44FF010004FF01001BAF19A
:100EE000000F06D0BCF1000FDCBF40F0080040F05E
:100EF00008014FF000000FBCBDE810400BF1010BE2
:100F0000BBF1010F08BF5FEA170722BF12F1010210
:100F100011F101014FF0004143F1000300F00040E6
:100F200043EA00007047F9D35708D0E746EA06467F
:100F300013F1400F4FEA16461FDD13F1200FDFBFFC
:100F400016430A46002120335B42BED0C3F120077E
:100F500046EA064602FA07F74FEA164646EA070649
:100F6000C3F1200722FA03F201FA07F721FA03F18D
:100F70004FF0000342EA0702A7E746EA020646EA04
:100F800006464FEA164646EA0106BCBF46EA064652
:100F9000360C4FF000034FF000024FF0000194E7D1
:100FA0002DE9804C9A46934670B491E8380007C802
:100FB00031EA400C48BF34EA430C03D5FFF7E6FDA5
:100FC000FFF780FFF0BCBDE8008C2DE9804C9A460D
:100FD000934670B491E8380007C810F0804F08BFFE
:100FE00013F0804F03D100F005F8FFF76BFFF0BC62
:100FF000BDE8008C20F07F4780EA030023F07F4C9F
:1010000007EB0C03A3F57C5300F00040A3F1FE03B3
:1010100092F0000F00F0B38095F0000F00F07780A1
:101020002DE901494FEA11404FEA144621EA0048F0
:1010300000FB06FC24EA064708FB06F607FB08F857
:1010400000FB07F718EB06484CEB164C4FEA124B27
:1010500018EB07484FEA15464CEB174022EA0B4EB7
:101060000BFB06FC25EA06470EFB06F607FB0EFE09
:101070000BFB07F71EEB064E4CEB164C4FF0000631
:101080001EEB074E4CEB174B18EB0B0840F1000022
:1010900018EB0E0B58EB000840F100008F1A4FF0D0
:1010A00000013CBFC943661B14BFB5EB040C002113
:1010B0003CBFC943F61B4FEA17444EEA8E0E27EA9F
:1010C00004454FEA1C4704FB07622CEA074C05FB6A
:1010D00007F70CFB05F604FB0CFC16EB074642EB8E
:1010E000174216EB0C4642EB1C421BEB060658EB74
:1010F0000202414146EA9E0601D5BDE80189B619C2
:10110000524141EB0101A3F10103BDE801894FEA1E
:1011100014454FEA114724EA054621EA074C05FB2E
:1011200007F406FB07F70CFB06F105FB0CFC11EBC3
:10113000074144EB17444FEA124711EB0C4144EBD3
:101140001C4422EA074C05FB07F206FB07F70CFBE1
:1011500006F605FB0CFC16EB074642EB174216EBB6
:101160000C4642EB1C456A1854F1000148BF704719
:10117000B619524141EB0101A3F10103704795F00B
:10118000000F37D04FEA11424FEA144721EA0246D6
:1011900024EA074C02FB07F106FB07F70CFB06F4F9
:1011A00002FB0CFC14EB074441EB17414FEA1547D7
:1011B00014EB0C4441EB1C4125EA074C02FB07F5FC
:1011C00006FB07F70CFB06F602FB0CFC16EB0746CA
:1011D00045EB174516EB0C4645EB1C42121951F135
:1011E000000148BF7047B619524141EB0101A3F11C
:1011F000010370474FEA14454FEA114724EA0546B8
:1012000021EA074C05FB07F106FB07F70CFB06F28A
:101210004FF0000605FB0CFC12EB074241EB1741B7
:1012200012EB0C4251EB1C4148BF7047921841EB46
:101230000101A3F10103704700BFFEE770472DE9EC
:10124000F04102460025002600200023002400274C
:1012500091F803C00CF00F0591F803C00CF0100CCE
:10126000BCF1000F03D091F802C04CEA050591F8DB
:1012700000C0BCF1000F31D0146800202BE04FF00B
:10128000010C0CFA00F3B1F800C00CEA03069E4210
:1012900020D183004FF00F0C0CFA03F7BC4305FA82
:1012A00003FC4CEA040491F803C0BCF1280F06D1FA
:1012B0004FF0010C0CFA00FCC2F814C00AE091F8DF
:1012C00003C0BCF1480F05D14FF0010C0CFA00FC33
:1012D000C2F810C0401C0828D1D31460B1F800C077
:1012E000BCF1FF0F34DD546800202EE000F1080C43
:1012F0004FF0010808FA0CF3B1F800C00CEA03063D
:101300009E4221D183004FF00F0C0CFA03F7BC432F
:1013100005FA03FC4CEA040491F803C0BCF1280F61
:1013200005D100F1080C08FA0CF8C2F8148091F805
:1013300003C0BCF1480F07D100F1080C4FF00108C1
:1013400008FA0CF8C2F81080401C0828CED354606C
:10135000BDE8F0810246002093680B400BB10120EC
:1013600000E00020704741617047016170470AB199
:10137000016100E041617047F8B505460E4614462C
:101380000E48854203D10121042000F0EBFA0C48FD
:10139000854203D10121082000F0E4FAADF8006095
:1013A0008DF80340102C01D0182C02D103208DF8A9
:1013B000020069462846FFF742FFF8BD00080140D9
:1013C000000C01402DE9F04700202049088001224F
:1013D00009151F48FFF7CBFF1E2000F0C5FC0022B7
:1013E0004FF480611A48FFF7C2FF00BF4FF400615D
:1013F0001748FFF7AFFF0028F8D001211348243821
:1014000000F0A7FB00BF4FF400611148FFF7A2FFF7
:101410000028F8D100210D48243800F09AFB0B4930
:10142000088800F09FFE06460A4A0B4B00F0AEFE0D
:10143000044600224FF0804300F03CFD804600F05F
:1014400007FD82465046BDE8F0870000242C01408D
:10145000000C01409CC420B07268A13F00BFFEE7B1
:1014600000BFFEE77047000070B500240CE00025C7
:1014700006E00020074901EBC5010855681CC5B20C
:10148000802DF6DB601CC4B2082CF0DB00F03EF9C6
:1014900070BD00001800002070B50B46CE1701EBA0
:1014A0005676C6F3C702CE1701EB5676F610A1EBBF
:1014B000C606F4B20123A340DDB20E4B03EBC0031A
:1014C0009B5CDB430B4E06EBC006B354094B03EBAE
:1014D000C0039B5C2B43074E06EBC006B354054B81
:1014E00003EBC0039B5CDB43024E06EBC006B35428
:1014F00070BD00001800002010B504461CB9002182
:10150000A62000F0C6F9012C03D10021A72000F08D
:10151000C0F910BD10B504463CB90021C82000F048
:10152000B8F90021A12000F0B4F9012C07D1002165
:10153000C02000F0AEF90021A02000F0AAF910BDF3
:1015400070B50A46CE1701EB5676C6F3C703CE1721
:1015500001EB5676F610A1EBC606F4B20122A240CA
:10156000D5B2054A02EBC002D25C2A43024E06EB1A
:10157000C006F25470BD00001800002010B54FF4F2
:1015800080710948FFF7F1FE4FF400710648FFF73C
:10159000ECFE4FF400710448FFF7E5FE4FF4807154
:1015A0000148FFF7E0FE10BD000C014010B54FF4FC
:1015B00080710748FFF7D9FE4FF400710448FFF728
:1015C000D2FE4FF400710248FFF7CFFE10BD0000BD
:1015D000000C014010B54FF480710448FFF7C5FEC0
:1015E0004FF480710148FFF7BEFE10BD000C0140B2
:1015F00008B50121082000F0B5F94FF44070ADF8AE
:10160000000003208DF8020010208DF803006946C9
:101610003D48FFF714FE4FF440713B48FFF7A5FE2D
:101620000021AE2000F035F90021084600F031F924
:101630000021102000F02DF90021402000F029F9B0
:101640000021812000F025F90021CF2000F021F9B0
:101650000021A12000F01DF90021C82000F019F997
:101660000021A62000F015F90021A82000F011F9B2
:1016700000213F2000F00DF90021D32000F009F9EE
:101680000021084600F005F90021D52000F001F9FD
:101690000021802000F0FDF80021D92000F0F9F8A9
:1016A0000021F12000F0F5F80021DA2000F0F1F837
:1016B0000021122000F0EDF80021DB2000F0E9F815
:1016C0000021402000F0E5F80021202000F0E1F8A2
:1016D0000021022000F0DDF800218D2000F0D9F873
:1016E0000021142000F0D5F80021A42000F0D1F84A
:1016F0000021A62000F0CDF80021AF2000F0C9F8AD
:10170000FFF7B2FE08BD0000000C014070B50024D8
:101710001BE004F1B000002100F0BBF800210846F6
:1017200000F0B7F80021102000F0B3F8002508E021
:10173000074901EBC501085D012100F0AAF8681C0A
:10174000C5B2802DF4DB601CC4B2082CE1DB70BD97
:10175000180000202DE9FF4F81B080460E461C4640
:1017600000962046E31704EB5373DB1021464FEA43
:10177000E47C04EB5C7C4FEAEC0CA4EBCC0CBCF1FD
:10178000000F02D04FF0010C01E04FF0000C634459
:10179000224604EBD27C4FEA6C0C03FB0CF303F003
:1017A000FF0B03982038C7B2002547E00C2C07D167
:1017B00007EB4700234901EB800010F805A014E077
:1017C000102C05D1204800EB071010F805A00CE004
:1017D000182C07D107EBC7001C4901EB800010F85B
:1017E00005A002E005B0BDE8F08F4FF000091FE052
:1017F0000AF0800020B131464046FFF7A1FE03E029
:1018000031464046FFF748FE4FEA4A604FEA106A09
:10181000701CC6B20098301AA04205D1009E08F193
:10182000010000F0FF0806E009F1010000F0FF09E7
:10183000B9F1080FDCDB00BF681CC5B25D45B5DB44
:1018400000BFCFE778240008EC280008DC2E000851
:10185000F0B506460F4614461D4613E022782B4687
:1018600039463046FFF776FF284605EBD07106EB88
:101870006101CEB2C5F18000B04202DA0026B81C88
:10188000C7B2641C2078202802DB20787E28E5DDA2
:10189000F0BD70B504460D461DB1E0B200F04AF847
:1018A00002E0E0B200F030F870BD00002DE9F04138
:1018B00005462C464FF480711248FFF754FD002670
:1018C0001CE0274607F08007802F04D1B9000D489F
:1018D000FFF74BFD04E04FF400710A48FFF743FDAA
:1018E0006006040E4FF480710648FFF73EFD4FF48A
:1018F00080710448FFF737FD701CC6B2082EE0DB8C
:10190000BDE8F081000C014010B50446FFF736FE3B
:101910007820FFF7CBFFFFF75DFE0020FFF7C6FF43
:10192000FFF758FE2046FFF7C1FFFFF753FEFFF712
:101930003DFE10BD10B50446FFF720FE7820FFF7EE
:10194000B5FFFFF747FE4020FFF7B0FFFFF742FE6D
:101950002046FFF7ABFFFFF73DFEFFF727FE10BD68
:101960007047000029B1064A92690243044B9A610C
:1019700004E0034A92698243014B9A617047000078
:1019800000100240704710B500F002F810BD0000D2
:101990000CB50020019000903348006840F480307E
:1019A0003149086000BF3048006800F40030009002
:1019B0000198401C0190009818B90198B0F5A06FEB
:1019C000F1D12948006800F4003010B101200090E6
:1019D00001E0002000900098012843D123480068CE
:1019E00040F01000214908600846006820F003001C
:1019F00008600846006840F0020008601A48406825
:101A0000194948600846406848600846406840F404
:101A1000806048600846406820F47C1048600846B2
:101A2000406840F4E81048600846006840F0807064
:101A3000086000BF0C48006800F000700028F9D072
:101A40000948406820F0030007494860084640689C
:101A500040F00200486000BF0348406800F00C00FE
:101A60000828F9D10CBD00000010024000200240FF
:101A7000042808D14FF0E021096941F004014FF03A
:101A8000E022116107E04FF0E021096921F0040133
:101A90004FF0E022116170477047000010B5134805
:101AA000006840F00100114908600846406810498C
:101AB00008400E494860084600680E4908400B4936
:101AC00008600846006820F48020086008464068E6
:101AD00020F4FE0048604FF41F008860FFF753FFBA
:101AE0004FF000600449086010BD00000010024083
:101AF0000000FFF8FFFFF6FE08ED00E010B5012141
:101B0000880700F032F818B10121880700F01EF8AC
:101B100010BD000010B50121044800F026F818B1EE
:101B20000121024800F012F810BD0000000400403E
:101B300010B50121044800F018F818B1012102483D
:101B400000F004F810BD000000080040CA43028203
:101B5000704721B1028842F00102028004E002884D
:101B60004FF6FE731A400280704730B502460020DF
:101B700000230024158A05EA0103958905EA01047A
:101B800013B10CB1012000E0002030BD002202881A
:101B90001D4B98420ED01D4B98420BD0B0F1804F98
:101BA00008D01B4B984205D01A4B984202D01A4BD2
:101BB000984204D14FF68F731A404B881A43174B43
:101BC000984207D0164B984204D04FF6FF431A4074
:101BD000CB881A4302808B8883850B8803850A4B48
:101BE00098420BD0094B984208D00E4B984205D032
:101BF0000D4B984202D00D4B984201D10B7A0386CF
:101C00000123838270470000002C01400034014012
:101C10000004004000080040000C0040001000409C
:101C200000140040004001400044014000480140D1
:101C300010B5102291010748FFF79EFB04225102C4
:101C40000448FFF799FB00224FF480610148FFF739
:101C50008EFB10BD000C01400EB5FFF7E9FF01211E
:101C6000C802FFF77FFE0020ADF802004FF6FF70BC
:101C7000ADF804004720ADF8000000208DF8080002
:101C800069460448FFF782FF00210248FFF761FF21
:101C90000EBD0000002C014000BFFEE7490050EAE5
:101CA000C12018BF04204A0D18BF40F0010040F2C7
:101CB000FF72B2EB515F08BF40F00200012808BF7D
:101CC0000520704730380A2801D2012070470020D3
:101CD000704700BF7047000010B56FF00400FFF7B9
:101CE000C7FE0A4800680A49B0FBF1F009490870CC
:101CF0000846007800EB4001C1EBC0104FF6FF71C1
:101D000001EAC0000449088010BD00000000002066
:101D100000127A0014000020160000200146114A2B
:101D200012884A434FF0E0235A6100229A611A4612
:101D3000126942F001021A6100BF4FF0E0221069FF
:101D400000F001021AB100F48032002AF5D04FF001
:101D5000E022126922F001024FF0E0231A61002212
:101D60009A617047160000200146114A12784A43D2
:101D70004FF0E0235A6100229A611A46126942F03C
:101D800001021A6100BF4FF0E022106900F0010269
:101D90001AB100F48032002AF5D04FF0E022126927
:101DA00022F001024FF0E0231A6100229A6170478D
:101DB0001400002086B00024FFF78EFF1420FFF7E8
:101DC000ADFFFFF715FC1420FFF7A8FF0020FFF779
:101DD00093FB0020FFF79EFBFFF798FCFFF73CFF0B
:101DE00017E0FFF7EFFA0446204600F0CDFA05466B
:101DF0002A460B4607A101A8FEF7F4F90C2301AA15
:101E000019460020FFF724FDFFF780FC6420FFF750
:101E100085FFE6E764697374616E6365203A253374
:101E20002E33660010B500290AD00878002807D0A4
:101E300005487844FEF7F8FD002801D0002010BDC9
:101E40000248784410BD0000BA1E0000B21E000017
:101E500021F00042A2F16052B2F5801F01F0004370
:101E600028BFD2F17F6C0BD95FEA001C43EAC202A3
:101E700042EB507018BF704728BF20F00100704738
:101E8000B2F5801FBCBF184670474FEA410C1CF5E5
:101E9000001F02D2084600F0E8BA70B500F020FA40
:101EA00000000089FFF7F6BF4FF00040A0F580006A
:101EB000704700002DE9C04130B4DFF8A0C23CEA11
:101EC000111418BF3CEA131400F0EC8081EA0305FA
:101ED0001CEA111444EAD57418BF1CEA131500F06B
:101EE000C780A4EB05044FF0004545EAC12145EA4F
:101EF000C32341EA505143EA525304F17F7499429B
:101F000004F500344FEAC0204FEAC22208BF9042D5
:101F100000F09C804FEA13650FF24016765D4FEAA1
:101F2000134506FB05F7C7F1807706FB07F74FEA75
:101F3000D737A7FB03687642C8F58038A7FB06CEE3
:101F400038BFA8F1010807FB08E64FF0000EA6FB1A
:101F5000028CE6FB03CEDCF1000CCEF1004E38BF64
:101F6000AEF1010EA6FB0C584FF000074FF0000534
:101F7000E6FB0E87A1FB08C6A0FB07CE16EB0E06FC
:101F800045F10005E1FB076515F1E04E7EBFA4F5C4
:101F900080345FEA46066D4116F1800745F1000581
:101FA0004FEA17274FEA066647EA0567A6F1DE46BD
:101FB000B6F1805F4FEA15251FD9384624F0010C91
:101FC00005EBC471BCF1FE6F01EB0C1102D8F0BC43
:101FD000BDE8008124425CBF01F5801E9EEAC47FFB
:101FE00002D4F0BCBDE80081244238D4F0BCA1F199
:101FF000C041BDE8004100F0C1B94FEAD22242EA37
:1020000043524FEAD323A7FB02864FEAD02040EA8F
:10201000415007FB03661EEA0E0F4FEAD12105FB74
:10202000026658BFA6EB0056B6EB00564FEA520EBA
:102030004EEAC37E18EB0E0E56EB530EBDD518EBD1
:1020400002085E417F1C55F10005B6E74FF480158C
:102050004FF000074FF000064FF00008ADE7F0BC6E
:102060004FF0000001F1C04101F00041BDE80081E6
:1020700011EA0C1F0CEA131500D00CE013EA0C1F38
:1020800000F025804FF00000F0BC81EA030101F070
:102090000041BDE80081F0BCBDE8004181EA0301D8
:1020A00000F06CB9F0BCBDE8004170B500F018F963
:1020B000097EFC3E00F007B881EA03014FF0000002
:1020C00001F00041704781EA030100F057B9F0BC0C
:1020D000BDE800414FF0000021497047FFFDFBF9CA
:1020E000F7F5F4F2F0EEEDEBE9E8E6E4E3E1E0DE4B
:1020F000DDDBDAD8D7D5D4D3D1D0CFCDCCCBCAC8BD
:10210000C7C6C5C4C2C1C0BFBEBDBCBBBAB9B8B7E3
:10211000B6B5B4B3B2B1B0AFAEADACABAAA9A8A8D6
:10212000A7A6A5A4A3A3A2A1A09F9F9E9D9C9C9BA4
:102130009A9999989797969595949393929191904F
:102140008F8F8E8E8D8C8C8B8B8A898988888787E0
:102150008685858484838382828181800000FF0755
:102160000000F87FB0FA80F310FA03F10AD0C3F14F
:102170001D0303F580634FEA41504FEA035202EB1F
:10218000D12170474FF0000070470000DFF848C1D0
:1021900070B51CEA111E1EBF1CEA13159EEA0C0F37
:1021A00095EA0C0F00F06F8081EA030423EA4C13D8
:1021B0004EEAD47E21EA4C1141F4801143F480139D
:1021C000AE44A1FB024CA0FB0365AEF17F7E361945
:1021D00055EB0C05A1FB034C4CF10003A0FB021CCA
:1021E00016EB0C06654153F10003094218BF46F097
:1021F000010613F4007F0BD14FEA03314FEA05309B
:10220000340341EA155140EA16506FF003020AE028
:102210004FEAC3214FEAC520F40241EA555140EA92
:1022200056506FF0020202EB2E4201EB025585EA96
:10223000CE710AD05FEA440C18BF24F0004450F17C
:10224000000041F1000120EAD47040F2FE7C6245BA
:1022500000D270BDA84214BF4FF080444FF04044FC
:10226000002E08BF0024BEF1806FA8BFA1F1C041BD
:10227000BDE8704080F282804FF0000001F1C04163
:1022800001F0004170479EEA0C0F0CEA131518BFCD
:1022900095EA0C0F06D04FF0000081EA030E0EF015
:1022A000004170BD00F01CF88900013E00F007B845
:1022B00000F009B84FEA430C5FEA5C5C08D081EAA1
:1022C000030100F05BB84FEA410C5FEA5C5CF6D1B9
:1022D0004FF00000014970470000FF070000F87F41
:1022E0000EF1020E2EF0030E5EF8046B364205D49A
:1022F000012A43EB030515F5001F12D8012841EB15
:10230000010C1CF5001F0CD80ED14FEAD17C15F53D
:10231000001F0CEB4C0C0CF1020C08BF4CEBD37CF7
:1023200004E04FF0080C01E04FEAD37C0CEB4C05C5
:1023300026FA05F606F00706B6F1040C06D20EEBF7
:10234000860CBDE870404CF0010C6047DFE80CF0F3
:10235000090B02024FF000414FF00000A1F50021EF
:1023600070BD19461046012851EB010418BFD4F581
:10237000001484BF002001F0004170BD0808A0F5E2
:1023800000114FEA3101704743004FEAD30C4FEA86
:102390003C0C43401FBF40070CF1605113F0FE4F4F
:1023A00070471CF0006F03D100200CF00041704713
:1023B0000CF0004343EA507010B540EACC0000F046
:1023C0000EF800BF000000924FEA0001FFF7D6BFF1
:1023D0004FF000414FF00000A1F5002170470EF1D1
:1023E000020E2EF0030E5EF8044B244204D44FEA92
:1023F0004102B2F17F4F11D84FEA4003B3F17F4F52
:102400000CD80ED14FEAD07CB2F17F4F0CEB4C0CC4
:102410000CF1020C08BF4CEBD17C04E04FF0080C2F
:1024200001E04FEAD17C0CEB4C0324FA03F404F0F6
:102430000704B4F1040C06D20EEB840CBDE8104086
:102440004CF0010C6047DFE80CF0070802024FF087
:102450000040A0F5800010BD0846420018BFD2F130
:10246000807288BF00F0004010BDFF2141EAD050CB
:10247000C0057047FEF755B80000000000000000DE
:1024800000000000000000003F40000000000000CD
:1024900000003000400030004000000009000BC088
:1024A0003D000BC03D00090018C024407FE02240E1
:1024B00031800000180024C01B000D8032400180D4
:1024C00003801C4027401C80074000401000600033
:1024D00000000000000000000000000000001F805D
:1024E000204040200000402020401F8000000000CD
:1024F000090006001F800600090000000400040017
:102500003F80040004000000001000600000000094
:1025100000000000040004000400040004000000A7
:10252000000000400000000000000000002001C08A
:1025300006003800400000001F802040204020405E
:102540001F800000000010403FC00040000000005D
:1025500018C0214022402440184000001080204034
:10256000244024401B80000002000D0011003FC0E9
:10257000014000003C80244024402440238000008F
:102580001F8024402440344003800000300020009D
:1025900027C03800200000001B8024402440244035
:1025A0001B8000001C0022C0224022401F8000002F
:1025B00000000000084000000000000000000000D3
:1025C0000460000000000000000004000A00110088
:1025D00020804040090009000900090009000000AE
:1025E00000004040208011000A0004001800200074
:1025F00023402400180000001F802040274029406D
:102600001F400000004007C039000F0001C000401B
:1026100020403FC0244024401B8000001F802040F9
:10262000204020403080000020403FC0204020401B
:102630001F80000020403FC024402E4030C00000DA
:1026400020403FC024402E00300000000F001080CA
:10265000204022403380020020403FC0040004009C
:102660003FC02040204020403FC02040204000008C
:102670000060202020203FC02000200020403FC0DC
:1026800024400B0030C0204020403FC0204000408C
:10269000004000C03FC03C0003C03C003FC0000001
:1026A00020403FC00C4023003FC020001F8020403E
:1026B000204020401F80000020403FC024402400D4
:1026C000180000001F802140214020E01FA00000D2
:1026D00020403FC02440260019C0004018C02440BC
:1026E0002440224031800000300020403FC0204084
:1026F0003000000020003F80004000403F8020006C
:1027000020003E0001C0070038002000380007C04C
:102710003C0007C038000000204039C0060039C026
:10272000204000002000384007C038402000000052
:10273000304021C02640384020C00000000000008A
:102740007FE0402040200000000070000C0003806B
:10275000004000000000402040207FE0000000001A
:1027600000002000400020000000000000100010C9
:1027700000100010001000100000000040000000D9
:1027800000000000000002800540054003C000403A
:1027900020003FC00440044003800000000003808C
:1027A0000440044006400000000003800440244030
:1027B0003FC000400000038005400540034000008A
:1027C000000004401FC0244024402000000002E01C
:1027D000055005500650042020403FC0044004002E
:1027E00003C000400000044027C00040000000007B
:1027F00000100010041027E00000000020403FC03F
:102800000140070004C00440204020403FC0004079
:102810000040000007C0040007C0040003C000001F
:10282000044007C00440040003C0004000000380CF
:102830000440044003800000041007F004500440EA
:1028400003800000000003800440045007F00010E3
:10285000044007C0024004000400000000000640DD
:102860000540054004C00000000004001F80044033
:1028700000400000040007800040044007C0004002
:102880000400070004C0018006000400060001C027
:10289000070001C006000000044006C0010006C099
:1028A000044000000410071004E00180060004004A
:1028B0000000044005C00640044000000000000085
:1028C00004007BE040200000000000000000FFF05A
:1028D00000000000000040207BE004000000000039
:1028E0004000800040002000200040000000000068
:1028F00000000000000000000000000000000000D8
:1029000000001FCC000C00000000000000000800C8
:10291000300060000800300060000000022003FC6E
:102920001E20022003FC1E200220000000000E18C2
:1029300011043FFF10840C78000000000F00108489
:102940000F3800C0077818840078000000780F84E2
:1029500010C411240E9800E40084000808006800E8
:1029600070000000000000000000000000000000F7
:10297000000007E018182004400200000000400298
:102980002004181807E00000000000000240024088
:1029900001800FF0018002400240000000800080B2
:1029A00000800FF800800080008000000001000D12
:1029B000000E000000000000000000000000008089
:1029C0000080008000800080008000800000000CFB
:1029D000000C0000000000000000000000000006E5
:1029E000001800600180060018002000000007F0B9
:1029F000080810041004080807F00000000008048C
:102A000008041FFC000400040000000000000E0C7D
:102A100010141024104411840E0C000000000C1837
:102A200010041104110412880C700000000000E072
:102A30000320042408241FFC0024000000001F9829
:102A4000108411041104108810700000000007F0B9
:102A500008881104110418880070000000001C0090
:102A6000100010FC13001C001000000000000E38C5
:102A700011441084108411440E3800000000070037
:102A8000088C10441044088807F000000000000083
:102A90000000030C030C0000000000000000000018
:102AA000000101060000000000000000000000809E
:102AB0000140022004100808100400000220022037
:102AC0000220022002200220022000000000100448
:102AD00008080410022001400080000000000E00E1
:102AE0001200100C106C10800F00000003E00C1896
:102AF00013E4142417C4082807D000000004003C85
:102B000003C41C40074000E4001C000410041FFC28
:102B10001104110411040E880070000003E00C1869
:102B200010041004100410081C10000010041FFCF6
:102B3000100410041004080807F0000010041FFC23
:102B40001104110417C410040818000010041FFC1D
:102B50001104110017C010000800000003E00C1859
:102B60001004100410441C780040000010041FFCE6
:102B700010840080008010841FFC100400001004EA
:102B800010041FFC100410040000000000030001EA
:102B9000100110011FFE10001000000010041FFCA7
:102BA000110403801464181C1004000010041FFC9E
:102BB0001004000400040004000C000010041FFCBA
:102BC0001F0000FC1F001FFC1004000010041FFC6D
:102BD0000C04030000E010181FFC100007F00808A8
:102BE000100410041004080807F0000010041FFC73
:102BF00010841080108010800F00000007F008186B
:102C000010241024101C080A07F2000010041FFCF6
:102C10001104110011C011300E0C000400000E1C34
:102C200011041084108410441C3800001800100097
:102C300010041FFC100410001800000010001FF802
:102C400010040004000410041FF8100010001E00FF
:102C500011E0001C007013801C0010001FC0103C0D
:102C600000E01F0000E0103C1FC000001004180C22
:102C7000163401C001C01634180C100410001C00DA
:102C8000130400FC13041C00100000000804101CB6
:102C90001064108413041C041018000000000000CD
:102CA00000007FFE400240024002000000003000B1
:102CB0000C0003800060001C0003000000004002C4
:102CC000400240027FFE0000000000000000000003
:102CD00020004000400040002000000000010001F2
:102CE000000100010001000100010001000040009E
:102CF00040002000000000000000000000000098DC
:102D0000012401440144014400FC000410001FFCA4
:102D100000880104010400880070000000000070B9
:102D20000088010401040104008800000000007014
:102D300000880104010411081FFC0004000000F8D1
:102D4000014401440144014400C8000000000104A2
:102D500001040FFC1104110411001800000000D63A
:102D600001290129012901C90106000010041FFCE5
:102D7000008401000100010400FC000400000104C3
:102D8000190419FC00040004000000000000000306
:102D900000010101190119FE0000000010041FFCD0
:102DA0000024004001B4010C0104000000001004E4
:102DB00010041FFC0004000400000000010401FCDA
:102DC0000104010001FC0104010000FC010401FCFC
:102DD000008401000100010400FC0004000000F870
:102DE000010401040104010400F80000010101FFD5
:102DF00000850104010400880070000000000070DC
:102E0000008801040104010501FF0001010401041F
:102E100001FC00840104010001800000000000CCDE
:102E20000124012401240124019800000000010074
:102E3000010007F80104010400000000010001F88E
:102E4000000400040004010801FC000401000180EA
:102E50000170000C001001600180010001F0010C04
:102E6000003001C00030010C01F00100000001043D
:102E7000018C00740170018C0104000001010181CA
:102E80000171000E00180160018001000000018442
:102E9000010C013401440184010C00000000000019
:102EA0000000000001003EFC400240020000000063
:102EB00000000000FFFF00000000000000004002D2
:102EC00040023EFC01000000000000000000600025
:102ED0008000800040004000200020000000000032
:102EE00000000000000000000000000000000000E2
:102EF00000000000000000000000000000000000D2
:102F00000000000000000000000000000000000FB2
:102F100080380FFE380F80380000000000000000ED
:102F2000000000000000000000000100000600009A
:102F30000C00003800003100000600000C000038D2
:102F40000000300000000000000000006180006709
:102F5000F807F98000618000618000618000618075
:102F60000067F807F98000618000000000000000A1
:102F7000000001C0E003E0F00630080418081FFF5D
:102F8000FE040E080787F00381E000000000000047
:102F900001F000060C00040408060C7001F9C000E2
:102FA0000E00003BE000EC18070808040C180003B2
:102FB000E00000000001E00007F003F818041C081E
:102FC00004170807E1D003C0E00023B0003C08006C
:102FD0002008000010000000000000010000310087
:102FE000003200001C000000000000000000000093
:102FF00000000000000000000000000000000000D1
:103000000000000000000000000000007F0001FF41
:10301000C00780F00C00181000042000020000001F
:103020000000002000021000040C00180780F001CE
:10303000FFC0007F00000000000000000000000052
:103040000000000000000000420000660000660072
:10305000003C0000180003FFC0001800003C000006
:103060006600006600004200000000000800000842
:103070000000080000080000080001FFC000080070
:103080000008000008000008000008000000000020
:10309000000100003100003200001C0000000000B0
:1030A0000000000000000000000000000000000020
:1030B00000000000080000080000080000080000F0
:1030C00008000008000008000008000008000008D0
:1030D0000000000000000000000000003800003880
:1030E00000003800000000000000000000000000A8
:1030F00000000000000000000000000000060000CA
:103100001C000070000180000E0000380000C000AC
:103110000700001C0000300000000000000000005C
:103120007F8001FFE003807006001804000804009F
:103130000806001803807001FFE0007F8000000097
:103140000000000000000100080100080100080361
:10315000FFF807FFF8000008000008000008000062
:103160000000000000000001C03802C058040098B0
:10317000040118040218040418061C1803F81801A6
:10318000E0F800000000000000000001C0E003C003
:10319000F004000804080804080806180803F418D6
:1031A00001E7F00001E00000000000000000000066
:1031B0000300000D00001100006100008108030100
:1031C0000807FFF80FFFF8000108000108000000E1
:1031D0000000000000E007FCD00608080610080602
:1031E0001008061008061838060FF00607C0000081
:1031F00000000000000000003F8001FFE003843079
:103200000208180410080410080410080718100316
:103210000FF00007C000000000000000000003C025
:10322000000700000600000600F80607F806180070
:1032300006E000070000060000000000000000019A
:10324000E1E003F7F0063410041808041808040C31
:1032500008040C0806161803F3F001C1E000000092
:1032600000000000F80003FC3003063804020804E4
:1032700002080402080404100308F001FFC0007FE4
:10328000000000000000000000000000000000003E
:103290000000000070380070380070380000000036
:1032A000000000000000000000000000000000001E
:1032B0000000000000000000301A00301C00000078
:1032C00000000000000000000000000000000000FE
:1032D00000000008000014000022000041000080EF
:1032E00080010040020020040010080008000000D7
:1032F000000000002100002100002100002100004A
:1033000021000021000021000021000021000021F7
:103310000000000000000000000008000804001089
:1033200002002001004000808000410000220000D7
:10333000140000080000000000000003C00004C0EA
:1033400000040000080038080F380808380810008A
:103350000C300007E00003C0000000000000000087
:103360003F8000FFE0038070020F1006708804C0E9
:1033700088048308047F8802C09003012000FE4077
:103380000000080000180001F8003E0801C2000714
:10339000020007E20000FE00001FC80001F8000064
:1033A0003800000804000807FFF807FFF8040808C1
:1033B00004080804080804080806180803F418019B
:1033C000E7F00001E0000000000000003F8001FF86
:1033D000E0038070020018040008040008040008DC
:1033E0000400100600200780C00000000400080749
:1033F000FFF807FFF80400080400080400080400B0
:103400001802001003807001FFE0007F80000000C0
:1034100004000807FFF807FFF80408080408080478
:103420000808040808043E08040008060018010003
:103430006000000004000807FFF807FFF804080810
:10344000040800040800040800043E00060000060A
:103450000000018000000000000000003F8001FF2C
:10346000E003807006001804000804020804020843
:103470000203F00783F000020000020004000807C6
:10348000FFF807FFF804080800080000080000081B
:103490000000080004080807FFF807FFF804000808
:1034A00000000000000004000804000804000807F1
:1034B000FFF807FFF80400080400080400080000F3
:1034C00000000000000000000006000007000001EE
:1034D00004000104000104000307FFFE07FFFC04D1
:1034E000000004000004000004000807FFF807FFC4
:1034F000F8040C08001800003E0004C7800503C84B
:103500000600F8040038040018000008040008074A
:10351000FFF807FFF804000800000800000800009A
:10352000080000080000080000180000600000000B
:1035300004000807FFF807800807FC00007FC000B0
:1035400003F80007C000780007800807FFF807FFAE
:10355000F804000804000807FFF807000803C0008B
:1035600000E000003800001E000007000001C00459
:1035700000F007FFF8040000000000007F8001FF5A
:10358000E003807006001804000804000806001814
:1035900003003001FFE0007F800000000400080706
:1035A000FFF807FFF80404080404000404000404FE
:1035B00000040400060C0003F80001F00000000005
:1035C000000000007F8001FFE00380700600880497
:1035D00000880400C806003C03003E01FFE6007FAF
:1035E0008400000004000807FFF807FFF80408083B
:1035F000040800040C00040F00040BC00610F003C4
:10360000F03801E00800000800000001E0F803F0D5
:1036100030063010041808041808040C08040C08BC
:103620000206180207F00781E00000000180000692
:10363000000004000004000004000807FFF807FF72
:10364000F8040008040000040000060000018000E7
:1036500004000007FFE007FFF00400180000080066
:10366000000800000800000800000804001007FF20
:10367000E004000004000006000007E00007FE0070
:10368000041FE00001F80000380001E0043E0007DC
:10369000C00006000004000004000007E00007FF6F
:1036A000C0041FF80007C007F80007FF80043FF8B8
:1036B0000007C004F8000700000400000000000438
:1036C000000806001807C07805F1C8003E00001F7A
:1036D000800463E80780F806001804000800000072
:1036E00004000006000007800007E008047C0800D2
:1036F0001FF80007F800180804E00807000006009B
:10370000000400000000000100080600380400F872
:103710000403E8040F08047C0805F00807C0080744
:10372000001804006000000000000000000000001D
:10373000000000000000003FFFFE20000220000209
:103740002000022000022000020000000000000013
:10375000000008000007000000C00000380000065C
:10376000000001C000003000000E00000100000059
:1037700000000000000020000220000220000220C3
:1037800000022000023FFFFE0000000000000000D9
:103790000000000000000000000000000008000021
:1037A0001000003000002000003000001000000871
:1037B0000000000000000000000001000001000007
:1037C00001000001000001000001000001000001F3
:1037D00000000100000100000100000100000000E5
:1037E0000000000000200000200000100000100079
:1037F00000000000000000000000000000000000C9
:103800000000000000F00019F8001B18002208005A
:103810002608002408002410003FF8001FF80000CC
:103820000800001800000004000007FFF80FFFF078
:1038300000181800100800200800200800301800A8
:103840001FF0000FC00000000000000007C0001FB4
:10385000F0001830002008002008002008003C0874
:10386000001C1000006000000000000000000000CC
:1038700007C0001FF00038180020080020080020B2
:103880000804101007FFF80FFFF000001000000000
:103890000000000000000007C0001FF00012300010
:1038A0002218002208002208003208001E10000E14
:1038B0002000000000000000200000200800200878
:1038C00001FFF803FFF80620080420080420080779
:1038D000200003000000000000000000000E000EA9
:1038E0006E001FF30031B10020B10020B100319112
:1038F000001F13002E1E00200E00300000000004E8
:10390000000807FFF80FFFF8001008002000002053
:1039100000002008003FF8001FF800000800000029
:103920000000000000000020080020080020080619
:103930003FF8063FF80000080000080000080000FB
:103940000000000000000000000000000300000371
:10395000002001002001002003063FFE063FFC007E
:10396000000000000000000000000004000807FF45
:10397000F80FFFF8000188000300002FC00038F89E
:1039800000203800200800000800000000000000AF
:10399000000004000804000804000807FFF80FFFF7
:1039A000F800000800000800000800000000000007
:1039B000002008003FF8003FF80010080020000039
:1039C0003FF8003FF8001008002000003FF8003FDB
:1039D000F8000008000000002008003FF8003FF851
:1039E000001008001000002000002008003FF80030
:1039F0001FF80000080000000000000007C0000FD2
:103A0000F0001830003008002008002008003008BE
:103A1000001830000FF00007C00000000000000098
:103A20002001003FFF003FFF00101100200900208F
:103A300008002008003038001FF0000FC000000010
:103A40000000000007C0001FF00038180020080028
:103A50002008002009001011001FFF003FFF000098
:103A600001000000002008002008002008003FF8A6
:103A7000003FF8000808001008002008002000009F
:103A80003000003000000000000000000000000CCA
:103A900078001E1800330800230800210800218840
:103AA0000021980030F000386000000000000000A5
:103AB000200000200000200000FFF003FFF800209D
:103AC000080020080020080000300000000000006E
:103AD000000000002000003FF0007FF80000180008
:103AE0000008000008002010003FF8007FF00000F0
:103AF00010000000000000002000003000003C002A
:103B0000003F800023F00000780000700023800058
:103B10003C00003000002000002000003C00003F7E
:103B2000E00023F80000E0002700003E00003FE036
:103B30000021F80001E0003E00002000000000002D
:103B40002008002008003838003E68002780000365
:103B5000C8002CF8003838002018002008000000A9
:103B6000000000002000003003003C01003F830003
:103B700023EC000070002380003C000020000020A7
:103B8000000000000000000000000038080020389D
:103B90000020F80023E8002F88003E0800380800C5
:103BA000201800007000000000000000000000006D
:103BB000000000000000000008000014001FF7FCD7
:103BC000300006200002000000000000000000009D
:103BD0000000000000000000000000000000FFFFE7
:103BE000FF000000000000000000000000000000D6
:103BF0000000000000002000023000061FF7FC005B
:103C00001400000800000000000000000000000098
:103C100000000000000000180000600000400000EC
:103C20004000002000001000000800000400000414
:103C300000000C000010000002400000000000A086
:103C40000000000005400000000000C80000000067
:103C50000C4000000000409C0000000019400000E3
:103C60000020BCBE0000000034400000BFC91B8E15
:103C700000000004B5400000504BCFD06607E2CFF3
:103C8000010000006C4100003E8251AADFEEA73423
:103C900001000000D9420000DCB5A0E23A301F97D5
:103CA000FFFFFFFFB4450000FD25A0C8E9A3C14FF9
:103CB000FFFFFFFFFF3F000000000080000000004A
:103CC000FF3F00000000008000000000083D0008E9
:103CD000000000201800000028010008203D000816
:103CE00018000020E00A0000440100081C00000049
:103CF00043000000F8FFFFFF0C0000000E00000072
:103D00000F0000002E00000000A24A040000000086
:103D1000000000000102030406070809000000007B
:04000005080000ED02
:00000001FF
