S315080000004004002001010008DD070008D5070008A4
S31508000010D907000819050008691200080000000041
S31508000020000000000000000000000000B5090008FC
S31508000030BD0600080000000065080008C90A000897
S315080000401B0100081B0100081B0100081B01000812
S315080000501B0100081B0100081B0100081B01000802
S315080000601B0100081B0100081B0100081B010008F2
S315080000701B0100081B0100081B0100081B010008E2
S315080000801B0100081B0100081B0100081B010008D2
S315080000901B0100081B0100081B0100081B010008C2
S315080000A01B0100081B0100081B0100081B010008B2
S315080000B01B010008F90B00081B0100081B010008BA
S315080000C01B0100081B0100081B0100081B01000892
S315080000D01B0100081B0100081B0100081B01000882
S315080000E01B0100081B0100081B010008DFF80CD0E3
S315080000F000F02EF80048004761140008400400206C
S315080001000648804706480047FEE7FEE7FEE7FEE7A3
S31508000110FEE7FEE7FEE7FEE7FEE7FEE7CD0A000894
S31508000120ED00000830B50B460146002020220124C8
S3150800013009E021FA02F59D4205D303FA02F5491BA7
S3150800014004FA02F52844151EA2F10102F1DC30BDBD
S31508000150064C074D06E0E06840F0010394E8070006
S3150800016098471034AC42F6D3FFF7C4FF5815000879
S315080001707815000821B1826842F00102826003E026
S31508000180826822F001028260704721B1826842F4D7
S315080001908072826003E0826822F48072826070470F
S315080001A0014600208A6802F004020AB1012000E034
S315080001B000207047014600208A6802F008020AB14A
S315080001C0012000E00020704730B5024600200023D9
S315080001D050680F4C20400D790C6844EA05242043EA
S315080001E0506090680B4C2040D1E902542C434D795D
S315080001F044EA450420439060D06A20F470000C7CE1
S31508000200641EE4B2234340EA0350D06230BD0000C6
S31508000210FFFEF0FFFDF7F1FFF0B504460D4600209E
S315080002200021092D11DDE068A5F10A0606EB46074F
S31508000230072606FA07F18843A5F10A0606EB4606DD
S3150800024003FA06F10843E0600CE0206905EB450770
S31508000250072606FA07F1884305EB450603FA06F171
S3150800026008432061072A0FDA606B561E06EB8607DD
S315080002701F2606FA07F18843561E06EB860605FA78
S3150800028006F10843606322E00D2A0FDA206BD61FB9
S3150800029006EB86071F2606FA07F18843D61F06EBE4
S315080002A0860605FA06F10843206310E0E06AA2F123
S315080002B00D0606EB86071F2606FA07F18843A2F104
S315080002C00D0606EB860605FA06F10843E062F0BD60
S315080002D0816841F008018160704721B1826842F463
S315080002E0A002826003E0826822F4A002826070475E
S315080002F0816841F0040181607047000030B591B013
S3150800030004460D460121084600F0BAFA01210420E8
S3150800031000F0D6FA0121480200F0D2FA794800F036
S3150800032009F90395002002900A90774801908020E9
S3150800033005902020089075480090001507908010B9
S315080003400690002004904FF40050099069466D48C5
S3150800035000F096F901216B4800F0E0F801208DF8CD
S31508000360310000200E904FF460200D9000200B9075
S3150800037001208DF830008DF83C500BA963484C38A5
S31508000380FFF722FF4FF4404000F06EFA04F0100029
S31508000390102806D10023012204215C484C38FFF7B7
S315080003A03BFF04F02000202806D100230222052165
S315080003B056484C38FFF730FF04F04000402806D175
S315080003C000230322062151484C38FFF725FF04F085
S315080003D08000802806D10023042207214B484C3888
S315080003E0FFF71AFF04F0010030B1002305220821A7
S315080003F046484C38FFF710FF04F00200022806D1E1
S3150800040000230622092141484C38FFF705FF012140
S315080004103E484C38FFF7B9FE01213C484C38FFF7F7
S31508000420A9FE3A484C38FFF753FF00BF37484C3807
S31508000430FFF7C0FE0028F9D134484C38FFF758FFBB
S3150800044000BF32484C38FFF7ABFE0028F9D101212E
S315080004502E484C38FFF741FF04F01000102809D148
S3150800046000208DF843001020ADF8400010A9284858
S3150800047000F025F904F02000202809D100208DF885
S3150800048043002020ADF8400010A9214800F017F9D4
S3150800049004F04000402809D100208DF84300402090
S315080004A0ADF8400010A91A4800F009F904F08000D8
S315080004B0802809D100208DF843008020ADF840003F
S315080004C010A9134800F0FBF804F0010048B1002019
S315080004D08DF843000120ADF8400010A90D4800F042
S315080004E0EEF804F00200022809D100208DF8430036
S315080004F00220ADF8400010A9064800F0E0F811B057
S3150800050030BD000008000240340000204C240140A1
S3150800051000080140000C014000BFFEE721B1026857
S3150800052042F00102026004E002684FF6FE731A40C8
S315080005300260704701684FF6FE72114001600021A3
S31508000540016041608160C1604B49884208D14A49CF
S315080005500839496841F00F01474A083A51608AE06C
S3150800056045491431884208D143490839496841F058
S31508000570F001414A083A51607DE03F4928318842F6
S3150800058008D13D490839496841F470613A4A083A40
S31508000590516070E038493C31884208D136490839FB
S315080005A0496841F47041344A083A516063E0324977
S315080005B05031884208D130490839496841F47021D8
S315080005C02D4A083A516056E02B496431884208D1D1
S315080005D029490839496841F47001274A083A51609F
S315080005E049E025497831884208D1234908394968BC
S315080005F041F07061204A083A51603CE01F49884240
S3150800060006D1011F096841F00F01021F116032E08F
S315080006101A491431884208D11849091F096841F056
S31508000620F001164A121F116025E014492831884244
S3150800063008D11249091F096841F470610F4A121F4F
S31508000640116018E00D493C31884208D10B49091F51
S31508000650096841F47041094A121F11600BE0074905
S315080006605031884207D10549091F096841F47021AC
S31508000670024A121F1160704708000240080402402F
S3150800068010B50022026847F6F0739A430C6A8B6825
S3150800069023430C6923434C6923438C692343CC6960
S315080006A023434C6A23438C6A23431A430260CB686C
S315080006B043600B6883604B68C36010BD70472DE9C3
S315080006C0F0410246002500260020002300240027CA
S315080006D091F803C00CF00F0591F803C00CF0100C4C
S315080006E0BCF1000F03D091F802C04CEA050591F859
S315080006F000C0BCF1000F31D0146800202BE04FF089
S31508000700010C0CFA00F3B1F800C00CEA03069E428D
S3150800071020D183004FF00F0C0CFA03F7BC4305FAFF
S3150800072003FC4CEA040491F803C0BCF1280F06D177
S315080007304FF0010C0CFA00FCC2F814C00AE091F85C
S3150800074003C0BCF1480F05D14FF0010C0CFA00FCB0
S31508000750C2F810C0401C0828D1D31460B1F800C0F4
S31508000760BCF1FF0F34DD546800202EE000F1080CC0
S315080007704FF0010808FA0CF3B1F800C00CEA0306BA
S315080007809E4221D183004FF00F0C0CFA03F7BC43AD
S3150800079005FA03FC4CEA040491F803C0BCF1280FDF
S315080007A005D100F1080C08FA0CF8C2F8148091F883
S315080007B003C0BCF1480F07D100F1080C4FF001083F
S315080007C008FA0CF8C2F81080401C0828CED35460EA
S315080007D0BDE8F08100BFFEE700BFFEE770470000F6
S315080007E070B5002100230F22C47804B3154C246881
S315080007F004F4E064C4F5E064210AC1F10403CA40C4
S31508000800447804FA03F184781440214309010E4C14
S315080008100678A155047804F01F050124AC40057834
S315080008206D11AD0005F1E025C5F8004109E0047831
S3150800083004F01F050124AC40044D0678761145F8EE
S31508000840264070BD0CED00E000E400E080E100E029
S3150800085002490143024A1160704700000000FA0588
S315080008600CED00E07047000001460020034A50687E
S3150800087020F44040084350607047000000100240D2
S3150800088029B1064A52690243044B5A6104E0034AF5
S3150800089052698243014B5A617047000000100240BA
S315080008A029B1064AD2690243044BDA6104E0034AD5
S315080008B0D2698243014BDA6170470000001002409A
S315080008C029B1064A92690243044B9A6104E0034A35
S315080008D092698243014B9A617047000000100240FA
S315080008E030B500210022002400232D4D6D6805F047
S315080008F00C0121B1042905D0082923D105E0294D89
S31508000900056022E0274D05601FE0254D6D6805F45A
S315080009107012234D6D6805F48034022505EB92426A
S315080009201CB9214D554305600BE01D4D6D6805F456
S3150800093000351DB11C4D5543056002E0194D554360
S31508000940056002E0174D056000BF00BF144D6D68D5
S3150800095005F0F0010909154D6B5C0568DD40456039
S315080009600F4D6D6805F4E061090A104D6B5C45682A
S31508000970DD4085600A4D6D6805F46051C90A0B4D66
S315080009806B5C4568DD40C560054D6D6805F4404102
S31508000990890B074D6B5CC568B5FBF3F5056130BD82
S315080009A00010024000127A0000093D0000000020F5
S315080009B010000020704710B500F002F810BD0000C6
S315080009C00CB50020019000903348006840F4803050
S315080009D03149086000BF3048006800F400300090D4
S315080009E00198401C0190009818B90198B0F5A06FBD
S315080009F0F1D12948006800F4003010B101200090B8
S31508000A0001E0002000900098012843D1234800689F
S31508000A1040F01000214908600846006820F00300ED
S31508000A2008600846006840F0020008601A484068F6
S31508000A30194948600846406848600846406840F4D6
S31508000A40806048600846406820F47C104860084684
S31508000A50406840F4E81048600846006840F0807036
S31508000A60086000BF0C48006800F000700028F9D044
S31508000A700948406820F0030007494860084640686E
S31508000A8040F00200486000BF0348406800F00C00D0
S31508000A900828F9D10CBD00000010024000200240D1
S31508000AA0042808D14FF0E021096941F004014FF00C
S31508000AB0E022116107E04FF0E021096921F0040105
S31508000AC04FF0E022116170477047000010B51348D7
S31508000AD0006840F00100114908600846406810495E
S31508000AE008400E494860084600680E4908400B4908
S31508000AF008600846006820F48020086008464068B8
S31508000B0020F4FE0048604FF41F008860FFF753FF8B
S31508000B104FF000600449086010BD00000010024054
S31508000B200000FFF8FFFFF6FE08ED00E070B588B09C
S31508000B3006460D46144601210846FFF7B1FE012177
S31508000B400420FFF7BDFE0020ADF8160040F2E7309E
S31508000B50ADF81800401C7043254991FBF0F0401E83
S31508000B6080B2ADF8140000208DF81C0005A94FF0DE
S31508000B70804000F089FA0121880700F032F97020D8
S31508000B80ADF80400ADF80A500120ADF806000220C1
S31508000B90ADF80C0004F0010020B101A94FF0804027
S31508000BA000F046F904F00200022803D101A9400723
S31508000BB000F08AF904F00400042803D101A900070B
S31508000BC000F0D4F904F00800082803D101A9C006EA
S31508000BD000F01CFAADF8004018208DF80300032039
S31508000BE08DF8020069460348FFF769FD08B070BD35
S31508000BF000A24A040008014010B50121154800F07A
S31508000C00FCF8002824D01448018814A000F02EFB14
S31508000C101148418814A000F029FB0F48818815A0C7
S31508000C2000F024FB0C48C18815A000F01FFB0A48F9
S31508000C30018916A000F01AFB0748418916A000F0A2
S31508000C4015FB18A000F012FB0121024800F0C6F8B7
S31508000C5010BD0000000400403400002061646331C8
S31508000C60203D2025640D0A0061646332203D20255D
S31508000C70640D0A0061646333203D2025640D0A0073
S31508000C8061646334203D2025640D0A006164633580
S31508000C90203D2025640D0A0061646336203D202529
S31508000CA0640D0A000D0A00007FB505460C460121B1
S31508000CB00220FFF7F5FD0020ADF80600ADF8085054
S31508000CC0ADF804408DF80C0001A90E4800F0DCF9D7
S31508000CD0012211460B4800F0A1F80121094800F04D
S31508000CE080F81D208DF8000001208DF803000020F3
S31508000CF08DF8010001208DF802006846FFF770FDA7
S31508000D007FBD00000004004070B588B006460D4659
S31508000D10144601210420FFF7C3FD01210820FFF72F
S31508000D20CFFD0020ADF8160040F2E730ADF8180008
S31508000D30401C7043264991FBF0F0401E80B2ADF886
S31508000D40140000208DF81C0005A9224800F09CF923
S31508000D500121204800F045F87020ADF80400ADF8F0
S31508000D600A500120ADF806000220ADF80C0004F088
S31508000D704000402803D101A9164800F059F804F0AC
S31508000D808000802803D101A9124800F09DF804F4D8
S31508000D908070B0F5807F03D101A90E4800F0E6F80F
S31508000DA004F40070B0F5007F03D101A9094800F0EA
S31508000DB02DF9ADF8004018208DF8030003208DF8B2
S31508000DC0020069460448FFF77AFC08B070BD0000C7
S31508000DD000A24A0400080040000C0140CA430282EF
S31508000DE0704721B1028842F00102028004E00288BD
S31508000DF04FF6FE731A400280704730B5024600204F
S31508000E0000230024158A05EA0103958905EA0104E9
S31508000E1013B10CB1012000E0002030BD1AB183895E
S31508000E200B43838102E083898B43838170470000EB
S31508000E3070B5002400220023058C4FF6FE76354057
S31508000E400584028C8388048B4FF68F752C40B51E5B
S31508000E502C400D882C43751E2A400D892A434D883F
S31508000E602A43144DA8420BD0134DA84208D0134D5F
S31508000E70A84205D0124DA84202D0124DA84213D15D
S31508000E804FF6F7752A404D892A434FF6FB752A40D7
S31508000E908D882A434FF6FF652B404FF6FF552B40AA
S31508000EA08D892B43CD892B4383800483CD88858602
S31508000EB0028470BD002C014000340140004001400E
S31508000EC0004401400048014070B500240022002378
S31508000ED0058C4FF6EF7635400584028C8388048BA3
S31508000EE048F6FF752C404FF6FF452C400D884FF607
S31508000EF0FF7606EA05252C434FF6DF752A400D894D
S31508000F0006EA05152A434D8806EA05152A43154DAE
S31508000F10A84202D0144DA8421DD14FF67F752A402B
S31508000F204D894FF6FF7606EA05152A434FF6BF7533
S31508000F302A408D8806EA05152A434FF6FF352B40C9
S31508000F404FF2FF752B408D8906EA85052B43CD891F
S31508000F5006EA85052B4383800483CD8805870284AA
S31508000F6070BD0000002C01400034014070B500241B
S31508000F7000220023058C4FF6FF6635400584028C57
S31508000F808388848B4FF68F752C404FF6FC752C4062
S31508000F900D882C434FF6FF552A400D894FF6FF76EC
S31508000FA006EA05252A434D8806EA05252A43154DEE
S31508000FB0A84202D0144DA8421DD14FF2FF752A400F
S31508000FC04D894FF6FF7606EA05252A434FF6FF3583
S31508000FD02A408D8806EA05252A434EF6FF752B40DA
S31508000FE04DF6FF752B408D8906EA05152B43CD89ED
S31508000FF006EA05152B4383808483CD88858702847A
S3150800100070BD0000002C01400034014070B500227C
S3150800101000230024058C4EF6FF7635400584038CA4
S315080010208488828B48F6FF752A404FF6FF452A408A
S315080010300D884FF6FF7606EA05252A434DF6FF7515
S315080010402B400D8906EA05352B434D8806EA0535FA
S315080010502B430B4DA84202D00A4DA84208D14BF6A5
S31508001060FF752C408D894FF6FF7606EA85152C43C9
S3150800107084808283CD88A0F84050038470BD000028
S31508001080002C014000340140002202881D4B984282
S315080010900ED01D4B98420BD0B0F1804F08D01B4B99
S315080010A0984205D01A4B984202D01A4B984204D15E
S315080010B04FF68F731A404B881A43174B984207D03E
S315080010C0164B984204D04FF6FF431A40CB881A4372
S315080010D002808B8883850B8803850A4B98420BD040
S315080010E0094B984208D00E4B984205D00D4B9842B2
S315080010F002D00D4B984201D10B7A038601238382D5
S3150800110070470000002C01400034014000040040F4
S3150800111000080040000C0040001000400014004089
S3150800112000400140004401400048014021B1828945
S3150800113042F40052828104E082894DF6FF731A4018
S3150800114082817047F0B5034600240026002500205A
S3150800115040F66A17B94200D100BF1846C1F34214D7
S3150800116001F01F06012707FA06F5012C01D10C30FC
S3150800117004E0022C01D1103000E014301AB10768DF
S315080011802F43076002E00768AF430760F0BD000021
S315080011902DE9F04786B005460E460024A24600BF54
S315080011A0A1460027B08900B100BF2F462C8A4CF60D
S315080011B0FF700440F08804432C82AC894EF6F31085
S315080011C00440B08831890843718908430443AC81D7
S315080011D0AC8A4FF6FF400440B0890443AC8201A8AC
S315080011E0FFF77EFB1F48874202D1DDF810A001E019
S315080011F0DDF80CA0A88900F4004040B10AEBCA004B
S3150800120000EB0A1031684900B0FBF1F807E00AEB79
S31508001210CA0000EB0A1031688900B0FBF1F86420B7
S31508001220B8FBF0F004012009642101FB1089A889A4
S3150800123000F4004040B1322000EBC900B0FBF1F0E9
S3150800124000F00700044308E0322000EB091064218F
S31508001250B0FBF1F000F00F0004432C8106B0BDE8A6
S31508001260F08700000038014000BFFEE70FB4054BC9
S3150800127010B503A9044A029800F018F810BC5DF8E6
S3150800128014FB0000451400081800002002E008C8F6
S31508001290121F08C1002AFAD170477047002001E0E2
S315080012A001C1121F002AFBD1704700002DE9FF4F2C
S315080012B089B09B460446002506E025280BD05A46E9
S315080012C00B999047641C6D1C20780028F5D10DB049
S315080012D02846BDE8F08F0027B8460122474900E0B6
S315080012E0074314F8013F203B02FA03F00842F7D1FE
S315080012F020782E2819D114F8010F47F004072A2858
S315080013000ED06FF02F022078A0F1300109290CD8F1
S3150800131008EB880102EB410100EB0108641CF2E7C7
S315080013200A98641C50F8048B0A9020780028CED0BE
S31508001330642808D0692806D075281ED05A460B9905
S3150800134090476D1C58E00A994FF00A0901C90A919D
S31508001350002802DA40422D2102E0390504D52B2166
S315080013608DF82010012103E0F90704D02021F7E7C2
S315080013708A4608AE0DE00021FAE70A994FF00A09F5
S3150800138001C90A91F7E74946FEF7CCFE303106F85F
S31508001390011D0028F7D1ADEB060000F120097807FA
S315080013A001D44FF00108C84502DDA8EB090000E0AA
S315080013B000208046002706E008A85A46C05D0B991B
S315080013C090476D1C7F1C5745F6DB04E030205A46D3
S315080013D00B9990476D1CB8F10001A8F10108F5DCDE
S315080013E005E016F8010B5A460B9990476D1CB9F1A2
S315080013F00001A9F10109F4DC641C65E7092801006C
S3150800140010B56FF00400FFF74BFB0A4800680A495D
S31508001410B0FBF1F0094908700846007800EB400176
S31508001420C1EBC0104FF6FF7101EAC00004490880FD
S3150800143010BD00002000002000127A0014000020D1
S315080014401600002000BF054A128802F04002002A52
S31508001450F9D0C2B2014B1B1D1A80704700380140F3
S315080014604FF4A060FFF7F4F94FF4E13000F024F8E8
S31508001470FFF7C6FF002141F61F40FFF715FC0322C0
S31508001480C82141F28830FFF751FB4FF4A072322190
S3150800149041F28830FFF738FC0621F320FEF72EFFCD
S315080014A002A0FFF7E3FE00BFFEE70000416C6C20D8
S315080014B06973206F6B0D0A0010B586B004460121CA
S315080014C044F20400FFF7FCF94FF40070ADF814007D
S315080014D003208DF8160018208DF8170005A91C485A
S315080014E0FFF7EDF84FF48060ADF8140004208DF88E
S315080014F0170005A91648FFF7E2F825208DF8000021
S3150800150003208DF801008DF8020001208DF80300F4
S315080015106846FFF765F901940020ADF80800ADF8B4
S315080015200A00ADF80C00ADF810000C20ADF80E005E
S3150800153001A90848FFF72CFE012240F2255105486B
S31508001540FFF700FE01210348FFF7F0FD06B010BDC6
S315080015500008014000380140781500080000002006
S31508001560340000008C120008AC1500083400002076
S315080015700C0400009C12000800000000010203048D
S315080015800102030406070809020406080000000011
S31508001590000000000000000000A24A04000000004D
S311080015A000000000010203040607080909
S705080000ED05
